:10F8000066C0000099C000007DC000007BC0000001
:10F8100079C0000077C0000075C0000073C0000010
:10F8200071C000006FC000006DC000006BC0000020
:10F8300069C0000067C0000065C0000063C0000030
:10F8400061C000005FC000005DC000005BC0000040
:10F8500059C0000057C0000055C0000053C0000050
:10F8600051C000004FC000004DC000004BC0000060
:10F8700049C0000047C0000045C00000040309045F
:10F880001C037700770077002E0066006900730084
:10F89000630068006C002E00640065000E035500D4
:10F8A0005300420061007300700012011001FF005C
:10F8B0000008C016DC050201010200010902120065
:10F8C0000101008032090400000000000000112442
:10F8D0001FBECFEFD0E1DEBFCDBF11E0A0E0B1E0B1
:10F8E000E0EDFFEF02C005900D92A630B107D9F709
:10F8F00011E0A6E0B1E001C01D92AE33B107E1F71F
:10F9000026D164C37DCFA82FB92F80E090E041E0DD
:10F9100050EA609530E009C02D9182279795879530
:10F9200010F084279527305EC8F36F5FA8F3089521
:10F93000EADF8D939D930895CF93CFB7CF93DF9355
:10F94000C3954B9BE9F74B9B11C04B9B0FC04B9B47
:10F950000DC04B9B0BC04B9B09C04B9B07C04B9BE7
:10F9600005C04B9B03C04B9B01C081C06F93C091EE
:10F970002101DD27C85DDE4F2F9320E400C065E044
:10F980004B9B03C02F916F91DECF0F931F934F932B
:10F9900045E55F9355E53F933BE014E009B10C70FA
:10F9A0002EC06A95C9F03150D8F109B10C7001131D
:10F9B0000BC008942795299320E4555500F46A95C7
:10F9C00069F701E069B10BC0102F66E02695299315
:10F9D00020E4555518F3E2CF0FEF69B10000162F60
:10F9E000455500F0404066E01C700030E2F221F026
:10F9F000000009B10C7003C009B10C70A9F001132B
:10FA000009C00894279568F200C06A95A9F700E03C
:10FA100069B1E5CF102F66E0269528F20000ECCF03
:10FA200011E01CBB002717C03B503195C31BD040D1
:10FA300011E01CBB0881033CF9F00B34E9F0209184
:10FA40001F011981110F1213EDCF093651F10D323B
:10FA500011F0013E39F7009326013F915F914F91DC
:10FA60001F910F912F916F91CCB3C0FD69CFDF91A2
:10FA7000CF91CFBFCF91189520912601222369F312
:10FA800010912401112329F534302AF130932401F7
:10FA900020932001109121013BE0311B3093210183
:10FAA0001AC0009124010130A4F40AE5309100014C
:10FAB00034FD12C000930001C4E1D1E011C005275C
:10FAC00010E000C00BB919C0052710E0221F00C0CC
:10FAD0001DC04AE502C032ED432FC4E1D0E032E060
:10FAE0001AB11C605B9A0BB11AB95CE020E869E4BA
:10FAF00020FF05270BB92795179500C000001C3F74
:10FB0000F0F66695A8F7A1F720FF05270BB9279512
:10FB1000179500001C3FC0F629913A9541F7037FE5
:10FB200010912501110F0BB9C651D04011F010935F
:10FB30001F0111E01CBB08601AB1137F402F437FE7
:10FB400055E05A95F1F70BB91AB94BB986CFEF9238
:10FB5000FF920F931F93DF93CF9300D0CDB7DEB703
:10FB600094B714BEA895292F332727FD309523FF7E
:10FB70000DC088E10FB6F894809360001092600089
:10FB80000FBEE0911201F0911301099511B812B85E
:10FB900014B815B817B818B8559A5C9A9270822F95
:10FBA00080958170980F09F4EEC181E085BF82E0F5
:10FBB00085BF2EE088E190E00FB6F894A895809379
:10FBC00060000FBE20936000809169008360809385
:10FBD0006900E89A57985F9820E005C0A89588E8E2
:10FBE00093E10197F1F72150C9F7579A5F9A7894FA
:10FBF0005D9AEE24FF2490912401935097FD40C11B
:10FC0000809121010CE010E0081B1109085D1E4FD6
:10FC1000809120018D3209F0DBC0983009F02EC1AF
:10FC200083EC809314018AE58093000110920A010D
:10FC3000D8013C91832F807611962C9111978823BF
:10FC400009F44FC086E091E0909323018093220154
:10FC50002330F9F413969C91139714968C91149772
:10FC600012962C91203339F48370E82FF0E0EE5F88
:10FC7000FE4F80810AC0203A11F492D106C0203C88
:10FC800019F4F801658194D180E08093090194E032
:10FC900091C0253011F491E08DC0822F84508630C0
:10FCA000C8F4D80112968D919C91139790930D01F1
:10FCB00080930C01293099F016969C911697909399
:10FCC000100115968C9182708093110137FD6DC0E3
:10FCD0002FEF6CC0223019F481E080930B0190E08B
:10FCE00069C0F801828110921D01222331F4109223
:10FCF0001E012DE131E092E053C0253019F48093CC
:10FD000025014BC02630C9F5D80113968C9181305E
:10FD100019F48AEA98EF04C0823041F48CEB98EF32
:10FD2000909323018093220192E123C0833001F557
:10FD3000F8018281882341F48CE798EF90932301A6
:10FD40008093220194E015C0813041F480E898EF5F
:10FD500090932301809322019CE10BC0823041F4F7
:10FD60008CE998EF90932301809322019EE001C0DB
:10FD700090E080E480930A011DC0283019F427E246
:10FD800031E009C0293019F48093270106C02A30D8
:10FD900021F42DE131E091E003C02DE131E090E06C
:10FDA000309323012093220105C0292F80E88093FE
:10FDB0000A010BC0D80117968C911797882321F45C
:10FDC00016962C91291708F0292F2093010156C06F
:10FDD00080910A0187FF52C080911001891708F4B1
:10FDE000982F891B8093100150E0882309F451E07B
:10FDF000492F60911101E0910C01F0910D0133C088
:10FE00004250EE2349F4F89483E080935700E8953C
:10FE1000789407B600FCFDCFF894D8018D919D91A0
:10FE20008D0121E00C0120935700E895112478946E
:10FE30009F012E5F3F4F222331F014169CF0552373
:10FE400089F0662379F0F89485E080935700E8956F
:10FE5000789407B600FCFDCFF89481E180935700B9
:10FE6000E8957894F90114160CF4CACFF0930D01BB
:10FE7000E0930C01552311F010920101109224011E
:10FE80008091000184FF68C0809101018F3F09F4D7
:10FE900063C0182F893008F018E0811B809301019E
:10FEA0008091140198E8892780931401112309F4A3
:10FEB00041C080910A0187FF21C080911001811704
:10FEC00008F4182F811B80931001E12FF0E0FA83D2
:10FED000E98360910C0170910D0185E191E0AF0122
:10FEE00056D080910C0190910D0129813A81280F03
:10FEF000391F30930D0120930C011AC0E0912201AB
:10FF0000F091230186FF09C0912FA5E1B1E0849112
:10FF10008D9331969150D9F707C0912FA5E1B1E0AB
:10FF200081918D939150E1F7F0932301E0932201A9
:10FF3000193060F485E191E0612FFADC012F0C5F4C
:10FF40000C3041F08FEF8093010104C08FEF80935C
:10FF500001010EE10093000194E189B18C7031F44C
:10FF60009150D9F71092250110921F01A895809108
:10FF70000B01882309F43FCE0894E108F108E1144D
:10FF8000F10409F038CE88E080936000FFCFFB01D8
:10FF9000DC0102C005900D9241505040D8F7089501
:10FFA000F999FECF92BD81BDF89A992780B5089541
:10FFB000262FF999FECF1FBA92BD81BD20BD0FB685
:10FFC000F894FA9AF99A0FBE01960895F894FFCF23
:06FFD0005AFF1E960A0014
:040000030000F80001
:00000001FF
